:100000000C942A000C943C000C943C000C943C0092
:100010000C943C000C943C000C943C000C94560056
:100020000C943C000C943C000C943C000C943C0060
:100030000C943C000C943C000C943C000C943C0050
:100040000C943C000C943C000C943C000C943C0040
:100050000C943C0011241FBECFE5D8E0DEBFCDBF1D
:1000600010E0A0E6B0E001C01D92A236B107E1F7B2
:100070000E94AB000C9454020C940000DF93CF93C9
:10008000CDB7DEB78AE490E020EC38EAFC0131839A
:1000900020838EE490E02CE0FC01208389E590E051
:1000A00020E1FC012083CF91DF9108951F920F92F0
:1000B0000FB60F9211242F933F935F936F937F930B
:1000C0008F939F93AF93BF93DF93CF93CDB7DEB75B
:1000D00080916000909161000196909361008093FF
:1000E0006000809160009091610022E030E0B901F1
:1000F0000E942D029093610080936000CF91DF9168
:10010000BF91AF919F918F917F916F915F913F913F
:100110002F910F900FBE0F901F901895DF93CF93E4
:10012000CDB7DEB78091600090916100009741F4F7
:10013000000080916000909161000097D1F308C0A9
:100140000000809160009091610081309105C9F3B9
:10015000CF91DF910895DF93CF9300D0CDB7DEB775
:100160000E94E5000E943E0078940E948E000E944A
:10017000FF0081E090E00E9430010E948E001A8210
:1001800019820BC089819A810E9409010E948E0008
:1001900089819A8101969A83898389819A818A309B
:1001A000910584F30E94FF000E948E0081E090E0A0
:1001B0000E945D010E948E0080E090E00E945D013F
:1001C0000E948E000E948A01FFCFDF93CF93CDB7AC
:1001D000DEB780E490E0FC01108289E290E023E247
:1001E000FC0120838AE290E028E1FC01208380E486
:1001F00090E026E8FC012083CF91DF910895DF9302
:10020000CF93CDB7DEB781E80E94A901CF91DF91EE
:100210000895DF93CF9300D000D0CDB7DEB79C8395
:100220008B8381E090E09A8389830BC08B819C81D2
:100230000E94D3010E94A90189819A8101969A8323
:10024000898389819A818730910584F386E00E94B1
:10025000A9010F900F900F900F90CF91DF9108950B
:10026000DF93CF9300D000D0CDB7DEB79C838B83D4
:1002700081E090E09A83898308C080E00E94A90110
:1002800089819A8101969A83898389819A818730AD
:1002900091059CF38B819C818130910521F486E04E
:1002A0000E94A90103C080E00E94A9010F900F9055
:1002B0000F900F90CF91DF910895DF93CF9300D0EF
:1002C00000D0CDB7DEB79C838B8381E090E09A832A
:1002D000898308C080E00E94A90189819A810196E2
:1002E0009A83898389819A81873091059CF38B81D8
:1002F0009C818130910521F481E00E94A90103C015
:1003000080E00E94A9010F900F900F900F90CF9165
:10031000DF910895DF93CF9300D0CDB7DEB781E0B2
:1003200090E09A83898308C080E00E94A9018981B6
:100330009A8101969A83898389819A818730910570
:100340009CF388E00E94A9010F900F90CF91DF915C
:100350000895DF93CF930F92CDB7DEB789838BE2F9
:1003600090E0FC018081882F90E08072907000976F
:10037000B1F38CE290E02981FC0120830F90CF91B2
:10038000DF910895DF93CF93CDB7DEB78BE290E096
:10039000FC0180818823D4F78CE290E0FC0180810D
:1003A000CF91DF910895DF93CF9300D00F92CDB717
:1003B000DEB79B838A8319828A819B818430910571
:1003C00099F18530910584F48130910521F18230D5
:1003D00091051CF40097E1F039C082309105F1F0ED
:1003E00083309105F1F032C08730910531F18830CA
:1003F00091053CF485309105D1F086309105D1F01E
:1004000025C088309105E1F089309105E1F01EC0EA
:1004100087E789831BC084E2898318C08DE58983BF
:1004200015C08DE6898312C08EE289830FC08BE6EA
:1004300089830CC08BE7898309C085E2898306C064
:100440008FE7898303C08FE68983000089810F903D
:100450000F900F90CF91DF91089597FB092E0726FB
:100460000AD077FD04D00CD006D000201AF4709585
:1004700061957F4F0895F6F7909581959F4F089568
:10048000AA1BBB1B51E107C0AA1FBB1FA617B707BA
:1004900010F0A61BB70B881F991F5A95A9F78095D6
:0C04A0009095BC01CD010895F894FFCFA9
:00000001FF
